S00F00004E796D657269612E7372656340
S11300000C942A000C9434000C9434000C943400A6
S11300100C9434000C9434000C9434000C9434008C
S11300200C9434000C9434000C9434000C9434007C
S11300300C9434000C9434000C9434000C9434006C
S11300400C9434000C9434000C9434000C9434005C
S11300500C94340011241FBECFE5D8E0DEBFCDBF21
S11300600E94FE000C94E4020C940000CF93DF93F2
S1130070D82FC62F0E94D90086EA0E94EC008D2F4B
S11300800E94EC008C2F0E94EC000E94E900DF919A
S1130090CF9108950E94D50068E08DE20E94360059
S11300A00895CF92DF92EF92FF920F931F93CF9315
S11300B0DF93EC010E94D90086EA0E94EC0082E3FF
S11300C00E94EC000E94D90087EA0E94EC0081E0C3
S11300D00E94F300C82E81E00E94F300D82E81E034
S11300E00E94F300E82E81E00E94F300F82E81E0E4
S11300F00E94F300082F80E00E94F300182F0E9452
S1130100E9006C2D70E07D29882777FD8095982F74
S11301100E94CD012DEC3CEC4CE151E40E948102A3
S113012020E030E04DE853E40E9463016883798362
S11301308A839B836E2D70E07F29882777FD8095C5
S1130140982F0E94CD012DEC3CEC4CE151E40E942F
S1130150810220E030E04DE853E40E9463016C83A7
S11301607D838E839F83602F70E0712B882777FDBA
S11301708095982F0E94CD012DEC3CEC4CE151E48C
S11301800E94810220E030E04DE853E40E946301C4
S1130190688779878A879B87DF91CF911F910F9119
S11301A0FF90EF90DF90CF90089580E280B911B86E
S11301B0089584EA86BF06B607FEFDCF81B1887F25
S11301C0883031F081B1887F803111F00E94D900EC
S11301D0089584E986BF089583B984E886BF06B686
S11301E007FEFDCF089520E4829FC0011124846896
S11301F086BF06B607FEFDCF83B10895CF93DF9384
S1130200CDB7DEB72C970FB6F894DEBF0FBECDBFC7
S11302108FEF81BB14BA8ABB0E944A00FE0131965B
S11302208CE0DF011D928A95E9F70F2EFFE0AF2ED7
S1130230F02D6894BB24B2F86894992493F802E0F2
S113024011E0CE0101960E945100CD80DE80EF8046
S1130250F88420E030E040E850E4C701B6010E9491
S11302607D02882314F012BBECCF20E030E040E89C
S113027050ECC701B6010E945F01181614F002BBCE
S1130280E0CFC980DA80EB80FC8020E030E040E8F9
S113029050E4C701B6010E947D02882314F092BA8B
S11302A0D0CF20E030E040E850ECC701B6010E9416
S11302B05F01181614F0B2BAC4CFA2BAC2CFA8D044
S11302C008F481E008950CD0DEC0D6D040F0CDD043
S11302D030F021F45F3F19F0BFC0511108C1C2C012
S11302E0E3D098F39923C9F35523B1F3951B550B28
S11302F0BB27AA2762177307840738F09F5F5F4FF5
S1130300220F331F441FAA1FA9F333D00E2E3AF035
S1130310E0E830D091505040E695001CCAF729D04F
S1130320FE2F27D0660F771F881FBB1F261737079E
S11303304807AB07B0E809F0BB0B802DBF01FF27CE
S113034093585F4F2AF09E3F510568F085C0CFC097
S11303505F3FECF3983EDCF3869577956795B79508
S1130360F7959F5FC9F7880F911D9695879597F923
S11303700895E1E0660F771F881FBB1F621773079C
S11303808407BA0720F0621B730B840BBA0BEE1FB1
S113039088F7E0950895E89409C097FB3EF490959A
S11303A08095709561957F4F8F4F9F4F9923A9F04A
S11303B0F92F96E9BB279395F695879577956795D9
S11303C0B795F111F8CFFAF4BB0F11F460FF1BC01D
S11303D06F5F7F4F8F4F9F4F16C0882311F096E9B0
S11303E011C0772321F09EE8872F762F05C066235E
S11303F071F096E8862F70E060E02AF09A95660F17
S1130400771F881FDAF7880F9695879597F90895CF
S1130410990F0008550FAA0BE0E8FEEF1616170611
S1130420E807F907C0F012161306E407F50798F079
S1130430621B730B840B950B39F40A2661F0232B92
S1130440242B252B21F408950A2609F4A140A6950E
S11304508FEF811D811D089597F99F6780E870E0F3
S113046060E008959FEF80EC089500240A94161626
S1130470170618060906089500240A94121613068E
S1130480140605060895092E0394000C11F488231C
S113049052F0BB0F40F4BF2B11F460FF04C06F5F38
S11304A07F4F8F4F9F4F089557FD9058440F551F0E
S11304B059F05F3F71F04795880F97FB991F61F0E2
S11304C09F3F79F087950895121613061406551F59
S11304D0F2CF4695F1DF08C0161617061806991FC5
S11304E0F1CF86957105610508940895E894BB27BA
S11304F066277727CB0197F908958ADF08F48FEFF1
S113050008950BD0C0CFB1DF28F0B6DF18F09523E3
S113051009F0A2CFA7CF1124EACFC6DFA0F3959F9D
S1130520D1F3950F50E0551F629FF001729FBB27D6
S1130530F00DB11D639FAA27F00DB11DAA1F649F82
S11305406627B00DA11D661F829F2227B00DA11D35
S1130550621F739FB00DA11D621F839FA00D611DBB
S1130560221F749F3327A00D611D231F849F600DDC
S1130570211D822F762F6A2F11249F5750408AF015
S1130580E1F088234AF0EE0FFF1FBB1F661F771FA1
S1130590881F91505040A9F79E3F510570F05CCFE1
S11305A0A6CF5F3FECF3983EDCF38695779567958D
S11305B0B795F795E7959F5FC1F7FE2B880F911DBF
S10F05C09695879597F90895F894FFCF5D
S9030000FC
