S00F00004E796D657269612E7372656340
S11300000C942A000C9434000C9434000C943400A6
S11300100C9434000C9434000C9434000C9434008C
S11300200C9434000C9434000C9434000C9434007C
S11300300C9434000C9434000C9434000C9434006C
S11300400C9434000C9434000C9434000C9434005C
S11300500C94340011241FBECFE5D8E0DEBFCDBF21
S11300600E9436000C9451000C9400001ABA8FEFD1
S113007087BB91E048E036E029E089B38F70813096
S113008011F428BBFACF823011F438BBF6CF843098
S113009011F448BBF2CF883011F498BBEECF18BAF4
S10900A0ECCFF894FFCF41
S9030000FC
